:020000040800F2
:10000000E00600201D1000081D0200081F02000865
:100010002102000823020008250200080000000059
:10002000000000000000000000000000270200089F
:1000300029020008000000002B0200082D02000821
:100040003710000837100008371000083710000874
:100050003710000837100008371000083710000864
:100060003710000837100008371000083710000854
:100070003710000837100008371000083710000844
:100080003710000837100008371000083710000834
:100090003710000837100008371000083710000824
:1000A0003710000837100008371000083710000814
:1000B0003710000837100008371000083710000804
:1000C00037100008371000083710000837100008F4
:1000D000371000085105000837100008C10D00084E
:1000E00037100008371000083710000837100008D4
:1000F00037100008371000083710000837100008C4
:1001000037100008371000083710000837100008B3
:1001100037100008371000083710000837100008A3
:100120003710000837100008371000083710000893
:1001300000F002F800F042F80AA090E8000C8244B7
:100140008344AAF10107DA4501D100F037F8AFF294
:10015000090EBAE80F0013F0010F18BFFB1A43F0A5
:1001600001031847FC4300001C440000103A24BF60
:1001700078C878C1FAD8520724BF30C830C144BF0C
:1001800004680C607047000000230024002500264E
:10019000103A28BF78C1FBD8520728BF30C148BFEA
:1001A0000B607047642902F0C381732902F0B382A7
:1001B000002070471FB51FBD10B510BD02F0B8FA82
:1001C0001146FFF7F7FF00F008F802F0D6FA03B483
:1001D000FFF7F2FF03BC00F065F900F0ADFB00F0A3
:1001E000D1FE4FF4407000F039FF4FF4E134204667
:1001F00000F062F9204600F093FD00F0C3F800F033
:10020000DBF8472144F61F6000F0D4FA472140F2A2
:10021000E73000F067FE00F006FAFCE77047FEE703
:10022000FEE7FEE7FEE77047704770477047000043
:100230000CB500214B4801910091026842F48032D4
:1002400002604FF4A063026802F400320092019A47
:10025000521C0192009A12B9019A9A42F3D1026893
:10026000920333D5012100913F490A6842F0100200
:100270000A600A6822F003020A600A6842F0020279
:100280000A604168416041684160416841F48061B1
:100290004160416821F47C114160416841F4E811FA
:1002A0004160016841F08071016001688901FCD5FD
:1002B000416821F003014160416841F00201416061
:1002C0004168C1F381010229FAD10CBD00910CBD36
:1002D000244810B5016841F0010101604168234ADA
:1002E000114041600168224A11400160016821F417
:1002F00080210160416821F4FE0141604FF41F013B
:100300008160FFF795FF1B494FF00060086010BD4A
:10031000144910B54868184A10F00C03174803D068
:10032000042B01D0082B0AD002604968134AC1F39C
:100330000311121D515C0268CA40026010BD4A6878
:100340004B6802F470124FF0020413F4803F04EB88
:10035000924202D04B689B0301D5094B00E0064B4B
:100360005A43E1E700100240002002400000FFF87D
:10037000FFFFF6FE08ED00E000127A00000000200A
:1003800000093D0038B50121082001F000F90320E3
:10039000ADF8000010218DF80310064C8DF8020016
:1003A0006946204600F009FF0321204600F073FF54
:1003B00038BD0000000C014008B50121202001F0EB
:1003C000E6F84FF47060ADF8000048208DF80300A7
:1003D0006946324800F0F1FE08BD2DE9F047304D86
:1003E000012700B12F702D4C4FF480763146204606
:1003F00000F03DFF4FF400784FF480694FF4006A3D
:1004000090B14146204600F032FF68B1494620468F
:1004100000F02DFF40B15146204600F028FF18B1F2
:100420002F700020BDE8F087012000F0D9FD28786A
:100430000028F6D03146204600F019FF78B1414639
:10044000204600F014FF50B14946204600F00FFF4F
:1004500028B15146204600F00AFF0028E1D10020D3
:1004600028703146204600F002FF88B14146204600
:1004700000F0FDFE70B14946204600F0F8FE58B18C
:100480005146204600F0F3FE0028CAD10420C9E7F7
:100490000120C7E70220C5E70320C3E7001401409D
:1004A000140000207047B6490A885206FCD5B44AA9
:1004B000C1B2121D1180704730B5054687B00121C9
:1004C00044F2040001F063F84FF40070ADF810003E
:1004D00003208DF812001820AA4C8DF8130004A9EF
:1004E000204600F06AFE2015ADF8100004208DF8BB
:1004F000130004A9204600F060FE25208DF81400AA
:1005000000248DF815408DF8164001208DF8170055
:1005100005A800F0A8FDADF80440ADF80640ADF820
:100520000840ADF80C400C20954CADF80A00009541
:100530006946204601F0AAF8012240F225512046E2
:1005400001F021F90121204601F013F907B030BD77
:1005500010B58B4C40F22551204601F0CBF9002814
:1005600013D0204601F05FF9C0B2874A874944287A
:100570000CD04B88012B08D10B785B1CDBB20B70C5
:10058000D054212801D16420488010BD00230B7075
:1005900010700120F8E72DE9F04700244518914636
:1005A00028782746A04626462D2802D14FF001087C
:1005B0006D1C28782E2819D0484519D15FB3381BF7
:1005C000401C03F0F4F802460B460020704902F08C
:1005D00067F905460C46304603F04CFC2A46234694
:1005E00003F038F902F06EFE064614E027460DE0EF
:1005F00003F014FD82466749304603F057FD51462B
:1006000003F064FC644903F04FFE0646641C6D1C55
:1006100064B20A2CCDDBB8F1000F01D086F00046A1
:100620003046BDE8F08770B55848002541886429F8
:100630007DD1554C0021418094F90100A0F1300694
:10064000092E0AD8212202212046FFF7A4FF0146E5
:1006500070B2BDE8704000F0FAB8A0F1410119296C
:100660006FD8412816D0502818D0422826D04328C9
:100670002DD0452847D0462850D0472858D0482864
:100680005FD1212202214048FFF785FF03F092FC51
:10069000424955E0BDE8704000F07AB921220221BC
:1006A0003948FFF778FF3B4903F000FD03F082FC77
:1006B000BDE8704081B23A4801F091BE212202218A
:1006C0003148FFF768FFBDE8704000F0ADB9522235
:1006D00002212D48FFF75FFF06460220215C00F152
:1006E0000100522908D040B21428F7DB29463046D1
:1006F000BDE8704000F0B2B941B221222248FFF7B4
:100700004AFF0546F2E7072126A000F0C9FBA078C2
:10071000BDE87040303840B200F0BFB9212202215C
:100720001948FFF738FF03F045FC204908E008E0CE
:10073000212202211448FFF72EFF03F03BFC1C4945
:10074000086070BD10B500280BD00D4A131D491E5E
:10075000C9B206D314886406FCD510F9014B1C807D
:10076000F5E710BD10B5044601F01EFFC1B22046EA
:10077000FFF7E8FF05480321BDE81040001DE1E751
:1007800000380140000801404C0000201600002005
:100790000000244000002041000040422C000020C6
:1007A000000C0040694641434D3A320024000020CD
:1007B0002800002030B50C46054689B001210C20E8
:1007C00000F0EEFE4FF44070ADF81C0018208DF8DC
:1007D0001F0003208DF81E0007A9494800F0EDFC1A
:1007E000ADF810400020ADF81450464CADF816009E
:1007F000ADF8120004A9204601F044F97020ADF8CC
:1008000000000120ADF802000220ADF808006946A2
:10081000204601F0E1F96946204601F017FA082167
:10082000204601F0D1FC0821204601F0D3FC40F223
:10083000E651204601F0D5FD40F2DC51204601F0A2
:10084000D2FD0121204601F0C6FB09B030BD70B5D4
:100850002D4E2C4C032812D02C4A042830D00228CC
:100860004CD10020106040F2E651204601F0B9FD65
:1008700040F2DC512046BDE8704001F0B4BD244D8B
:10088000B14208460AD303F0F5FA224A224B02F09D
:10089000E1FF00222B4602F047FD09E003F0EAFAEF
:1008A0001E4A1F4B02F0D6FF00222B4603F006F92A
:1008B00002F04EFF81B22046BDE8704001F091BDCC
:1008C000184D08461160B1420AD303F0D3FA164A14
:1008D000164B02F0BFFF00222B4603F0EFF809E0B1
:1008E00003F0C8FA124A134B02F0B4FF00222B4661
:1008F00002F01AFD02F02CFF81B2BBE770BD0000D0
:10090000000C014000080040000080802000002012
:10091000009897408B6CE7FBA97125C02DB29DEF25
:10092000A7C625400070974017D9CEF753E324C0DF
:1009300046B6F3FDD4382640F8B501217C2000F0FE
:1009400026FEC020ADF8000010208DF80300E04E18
:1009500003248DF802406946304600F02EFC402109
:10096000304600F09AFC8021304600F094FCB5142B
:10097000ADF8005014208DF803008DF80240694650
:10098000304600F01AFC2946304600F084FCF8BDE1
:100990002DE9F041CF4D01242646C5F89C41204663
:1009A00003F024FB01460320FFF751FF0A2000F06B
:1009B00017FB641C462CF2DB0AE0204603F016FB12
:1009C00001460320FFF743FF0A2000F009FB641EE5
:1009D000032CF2DC40F2DC54204600F001FB204600
:1009E00000F0FEFA204600F0FBFA0024C5F89C4116
:1009F0004FF4FA77384605F5CC7500F0F1FAAC61A2
:100A00002E600021B44801F0EAFC384600F0E8FA14
:100A1000AE612C606E60642000F0E2FABDE8F04147
:100A200000210220FFF713BF10B503F023FAAB4AF1
:100A3000AB4B02F079FCAB4AAB4B02F031FD00222C
:100A4000AA4B02F007FF02F03DFC03F0B3FA81B2BB
:100A5000A14801F0C4FCBDE8104099E710B50C4670
:100A600003F008FA9D4A9E4B02F05EFC9D4A9E4BA5
:100A700002F016FD00229D4B02F0ECFE02F022FC7B
:100A800003F098FA81B2944801F0A9FC21460420B1
:100A9000FFF7DDFEBDE810407AE72DE9F14F8AB09F
:100AA000052007900120022608900020DFF824820C
:100AB00005904FF00109039005460446C8F89C9143
:100AC0004FF46171844801F08AFC204603F08EFAED
:100AD00001460320FFF7BBFE0A2000F081FA641CE8
:100AE000462CF2DB0AE0204603F080FA01460320A0
:100AF000FFF7ADFE0A2000F073FA641E032CF2DC4F
:100B000000210320FFF7A3FE0A98794C022816D093
:100B1000784F606803F06AFA014600900420FFF7FE
:100B200096FE4FF4967000F05BFADFF8CCB14FF010
:100B3000000A00BF9BF80010642904D073E06068CD
:100B40006E4F4042E6E78BF800A000F05CF90546E6
:100B5000322868DD2068854201DA022E04D0854201
:100B600043DD012E35D040E06548006805900798C8
:100B700018B1401EC0B2079037E0C8F89CA14FF0F2
:100B800081410320FFF763FE0520079001266420C2
:100B900000F026FAC8F8B0A1C8F8989159A32A46DF
:100BA00059A15D4801F052FC5B48FFF7DBFD0021D5
:100BB000494801F014FCC82000F012FA002103207B
:100BC000FFF745FEC8F8B091C8F898A1C8F89C9105
:100BD0000BE04B48006803900898012801D018B139
:100BE00003E00020089000E002260A9802286068CE
:100BF00056D0404203F0FAF9009903F023FB03D2E8
:100C0000606803F0F3F9009004200099FFF71FFEDD
:100C1000009803F02FF94FF03332404B03F040F8C7
:100C200002F050FB0090002E84D15646C8F89CA1DB
:100C30004FF08141032008F5CC74FFF708FE0399BB
:100C4000059803F043F94FF0FF3103F002FC3946F9
:100C500003F03CF901460420FFF7F9FDA6614FF4CB
:100C6000967000F0BDF94F46C4F8009025A32A46BF
:100C700025A1294801F0EAFB2748FFF773FD002171
:100C8000154801F0ACFBC82000F0AAF900210320B0
:100C9000FFF7DDFDA761266067600BB0BDE8F08F50
:100CA00003F0A4F9009903F0CDF904D26068404242
:100CB00003F09CF9009004200099FFF7C8FD00980C
:100CC00003F0D8F84FF03332144B02F02DFBA7E7B6
:100CD0000008014000002142000C00409A999999B7
:100CE00099D95A40E27A14AE47E12E4000002440E0
:100CF000240000200000404030000020000080BFA1
:100D000020000020636D000074322E7478743D2240
:100D10002564202573220000600000203333D33F78
:100D200030B5044687B00121092000F030FC0121D4
:100D3000880400F035FC4FF48060ADF8100003200B
:100D40008DF8120018205F4D8DF8130004A9284675
:100D500000F033FAE814ADF8100004208DF8130009
:100D600004A9284600F029FA27208DF81400022053
:100D70008DF8150001208DF816008DF8170005A8D4
:100D800000F071F90020ADF804000094ADF8060001
:100D9000ADF80800ADF80C000C204B4CADF80A0083
:100DA0006946204600F072FC012240F2255120469F
:100DB00000F0E9FC0121204600F0DBFC07B030BD6B
:100DC00010B5414C40F22551204600F093FD00281B
:100DD00013D0204600F027FDC0B23C4A3C494428CD
:100DE0000CD00B78012B08D14B785B1CDBB24B701D
:100DF000D0546D2801D16420087010BD00234B70C1
:100E000010700120F8E72DE9F047304D00263746F5
:100E10002878442802D168783D2802D00020BDE817
:100E2000F087DFF8B080DFF8B0900224285D2E282C
:100E30001BD06D281BD003F0F1F88246414638469E
:100E400003F034F9514603F041F8494603F02CFA17
:100E50000746641C64B20A2CE8DB2049384603F0DC
:100E600025F9BDE8F04703F0A5B82646F1E7002EC6
:100E7000F3D0301B401C02F09AFC02460B460020C7
:100E8000174901F00DFD05460C46384602F0F2FF09
:100E90002A46234602F0DEFC02F014FA0746DCE79D
:100EA00010B500280DD000290BDD074A131D491E7F
:100EB00049B206D314886406FCD510F9014B1C8096
:100EC000F5E710BD000C0140004800406A0000201A
:100ED0003000002000002041000040420000C842D5
:100EE0000000244070B50C46064688B00121082059
:100EF00000F056FB0121052000F049FB0225ADF86A
:100F00001C5018208DF81F0003208DF81E0007A923
:100F10001A4800F052F9ADF81460ADF81040002402
:100F2000174EADF81640ADF8124004A9304600F057
:100F3000A9FD7020ADF800000120ADF80200ADF869
:100F40000640ADF808506946304600F009FE082119
:100F5000304601F02FF90121304601F0F2F801216D
:100F6000304601F042F80121304601F034F800210A
:100F7000304601F034FA08B070BD000000080140AE
:100F8000000C004010B56FF0040000F0ACF82048F1
:100F900020490068B0FBF1F0C1B21F4801EB4102EB
:100FA0000170C2EBC1114FF6FF7202EAC10141802C
:100FB00010BD1949097848434FF0E02148610022EB
:100FC0008A61086940F0010008610869C30701D01F
:100FD000C003FAD5086920F0010008618A617047F2
:100FE0000D49498848434FF0E021486100228A6159
:100FF000086940F0010008610869C30701D0C00317
:10100000FAD5086920F0010008618A617047000084
:101010000000002000127A003200002009488047BA
:1010200009480047FEE7FEE7FEE7FEE7FEE7FEE7CA
:10103000FEE7FEE7FEE7FEE704480549054A064BE2
:1010400070470000D102000831010008E0000020D4
:10105000E0060020E0020020E002002028490843CA
:1010600028490860704770B50F23C47801780122C1
:10107000F4B1244C2468457804F4E064C4F5E064D9
:10108000240AC4F10406E3408478B5401C402C4394
:1010900001F1E021230181F80034007800F01F0104
:1010A0008A404009800000F1E020C0F8002170BDB6
:1010B00001F01F0082404809800000F1E020C0F8E4
:1010C000802170BD104A114001430E48001F01608D
:1010D00070470C4A121D0029116801D0014300E03D
:1010E0008143116070474FF0E0210428086903D064
:1010F00020F004000861704740F00400FAE70000A7
:101100000000FA050CED00E080FFFF1F914910B5CB
:10111000884206D10121042000F04BFA002104206E
:101120003BE08D49884206D10121082000F041FAB8
:101130000021082031E08949884206D10121102090
:1011400000F037FA0021102027E08549884206D1B7
:101150000121202000F02DFA002120201DE08149EE
:10116000884206D10121402000F023FA00214020CE
:1011700013E07D49884206D10121802000F019FA50
:101180000021802009E0794988420AD18415012193
:10119000204600F00EFA00212046BDE8104000F085
:1011A00008BA10BD10B50121084600F002FA00216E
:1011B000BDE81040012000F0FCB9F0B5CA78002568
:1011C00002F00F03D20601D58A7813430A784FF054
:1011D0000F0E12F0FF0F4FF001021DD0D0F80040AB
:1011E0000F8802FA05F63740B74211D14FEA850C55
:1011F0000EFA0CF724EA070703FA0CF43C43CF7805
:10120000282F02D0482F02D002E0466100E006619C
:101210006D1C082DE4D304600C88FF2C1ED9446893
:101220005FF0000606F1080702FA07F50F882F4065
:10123000AF420FD14FEA860C0EFA0CF7BC4303FA0B
:101240000CF73C43CF78282F00D14561CF78482F49
:1012500000D10561761C082EE4D34460F0BD4FF642
:10126000FF710180022181700421C1707047024624
:10127000002092680A4200D001207047806880B246
:10128000704702460020D2680A4200D00120704711
:10129000C06880B2704701617047416170470AB110
:1012A0000161704741617047C160704741F480320D
:1012B0008261816182618169806970472C4B10B5C0
:1012C0001A684FF68074224042EA00100843186002
:1012D00010BD2849C8617047F0B5254C002801DAD7
:1012E000E36900E06368420D120185B2C0F3015763
:1012F0009540C0F30346032F05D0C2020AD503224E
:10130000B240934307E023F07062636823F0706398
:10131000636002E0AB4343F0706201B12A430028EE
:1013200001DAE261F0BD6260F0BD10B58A0721F01C
:1013300003040F49130F21440F228C689A409443F1
:101340008C608A68984002438A6010BD0949C1F8E0
:10135000DC00704700080140000C01400010014013
:101360000014014000180140001C01400020014011
:101370000000014000002042A448016841F0010142
:1013800001604168A24A114041600168A14A1140D0
:101390000160016821F480210160416821F4FE01AF
:1013A00041604FF41F018160704798490A6822F438
:1013B00080320A600A6822F480220A60B0F5803F19
:1013C00007D0B0F5802F03D1086840F4A020086052
:1013D0007047086840F48030F9E70246002053095E
:1013E0008A49012B0AD0022B0AD0496A02F01F0257
:1013F000012393400B4200D0012070470968F5E7B4
:10140000096AF3E718B500204FF4A064009031207A
:10141000FFF7E3FF0099491C0091A14201D0002889
:10142000F5D03120FFF7D9FF002800D0012018BDEA
:1014300076490A6822F0F80242EAC0000860704764
:10144000754908607047714A5368084323F47C1358
:101450001843506070477049086670476B4A51687E
:1014600021F003010143516070476848406800F073
:101470000C007047654A516821F0F001014351604A
:101480007047624A516821F4E0610143516070473E
:101490005E494A6822F4605242EAC00048607047E0
:1014A0005A4A0029517A01D0014300E08143517228
:1014B00070475949C1F8D8007047544A516821F41F
:1014C00040410143516070475049002281F820207B
:1014D00081F82020012802D0042802D1052081F8BB
:1014E000200070474D490860704748490A6A024326
:1014F0000A627047494944390860704730B543492A
:101500004A6812F00C03464A03D0042B01D0082B82
:1015100021D002604A680F23424C03EA1212A35CF6
:101520000268DA4042604B68072505EA1323E35C52
:1015300022FA03F383604B6805EAD323E35CDA40C5
:10154000C2604968032303EA9131231F595CB2FB4F
:10155000F1F1016130BD4A684B6802F470124FF03E
:10156000020413F4803F04EB924202D04B689B03C9
:1015700001D52D4B00E02A4B5A43CAE7234A0029E4
:10158000516901D0014300E08143516170471F4A16
:101590000029916901D0014300E0814391617047C6
:1015A0001A4A0029D16901D0014300E08143D16189
:1015B0007047164A0029D16801D0014300E08143F9
:1015C000D1607047114A0029116901D0014300E040
:1015D00081431161704711494039086070470E49D5
:1015E000C86470470949C87170470848416A41F0AA
:1015F000807141627047054A0146002092680A42A4
:1016000000D00120704701498872704700100240E5
:101610000000FFF8FFFFF6FE000042428004424255
:1016200000127A003A00002000093D00C44910B5BC
:1016300088420AD101218C032046FFF7BAFF2046D9
:10164000BDE810400021FFF7B4BFBE49884202D177
:1016500001214C0410E0BC49884202D101218C04D4
:101660000AE0BA49884202D10121CC0404E0B84919
:1016700088420AD101210C052046FFF7A3FF20462E
:10168000BDE810400021FFF79DBF10BD30B50446F6
:10169000008A85B00D464CF6FF710840E988014389
:1016A0002182A1894EF6F3100140A8882A891043AF
:1016B0006A890A431043A081A08A4FF6FF4108407F
:1016C000A9890143A1826846FFF718FF9C4884421C
:1016D00001D1039800E00298A189090400EBC00140
:1016E00001EB0010296801D5490000E08900B0FB3A
:1016F000F1F06422B0FBF2F109010B096FF018055B
:101700006B4300EB8300A3891D044FF0320306D521
:1017100003EBC000B0FBF2F000F0070005E003EBC4
:101720000010B0FBF2F000F00F000843208105B07C
:1017300030BD4FF41651016000218180C1800181CC
:101740000C2242818181704710B5038A4FF2FF025B
:1017500013400A884C8822438C88C9880C43224352
:101760001A43028210BD0021018041808180C18026
:1017700070470029818902D041F4005101E021F431
:1017800000518181704710B5C1F3421301F01F046D
:101790000121A140012B07D0022B07D01430002AD1
:1017A000026805D00A4304E00C30F8E71030F6E791
:1017B0008A43026010BD002A828A01D00A4300E0F9
:1017C0008A4382827047028A22F00F020282028AD2
:1017D0000A4302827047828922F4006282818289F0
:1017E0000A43828170470029818902D041F00201B9
:1017F00001E021F0020181817047028A22F020027B
:101800000282028A0A43028270470029018A02D0BA
:1018100041F4804101E021F4804101827047C1F32D
:101820000801818070478088C0F308007047818973
:1018300041F0010181817047028BD2B20283028B99
:1018400042EA012101837047028B02F47F42028346
:10185000028B0A43028370470029818A02D041F03B
:10186000200101E021F02001818270470029818A56
:1018700002D041F0100101E021F010018182704797
:101880000029818A02D041F0080101E021F008011D
:10189000818270470029818902D041F4004101E032
:1018A000C1F30E01818170470029818A02D041F481
:1018B000006101E021F4006181827047828A22F098
:1018C00004028282828A0A43828270470029818AC6
:1018D00002D041F0020101E021F002018182704753
:1018E0000246002012880A4200D001207047C943F6
:1018F0000180704730B501F01F0201240025C1F3BB
:10190000421304FA02F2012B0FD0022B0FD0838A6C
:101910004FEA11210088134204FA01F400EA04009E
:1019200001D000B10125284630BD8389F0E7038A44
:10193000EEE70A0A01219140C94301807047000087
:10194000003801400044004000480040004C004086
:1019500000500040F94910B5884202D10121C41459
:1019600086E0B0F1804F09D0F54988420DD10121C0
:101970000220FFF727FE0021022064E00121084633
:10198000FFF720FE002101205DE0EE49884206D1EC
:1019900001210420FFF716FE0021042053E0EA494C
:1019A000884206D101210820FFF70CFE0021082003
:1019B00049E0E649884206D101211020FFF702FEE6
:1019C000002110203FE0E249884206D10121202079
:1019D000FFF7F8FD0021202035E0DE49884202D1E2
:1019E0000121441444E0DC49884202D10121CC04A5
:1019F0003EE0DA49884202D101210C0538E0D8499D
:101A0000884202D101214C0532E0D649884206D1F4
:101A100001214020FFF7D6FD0021402013E0D249EC
:101A2000884206D101218020FFF7CCFD00218020D3
:101A300009E0CE4988420AD1841501212046FFF7EA
:101A4000C1FD00212046BDE81040FFF7BBBDC849DD
:101A5000884202D101210C040AE0C649884202D121
:101A600001214C0404E0C44988420AD101218C04BC
:101A70002046FFF79EFD2046BDE810400021FFF7FD
:101A800098BD10BD30B50288AC4BB24C98420DD019
:101A9000A0420BD0B0F1804F08D0A94DA84205D08C
:101AA000A84DA84202D0A84DA84203D122F070054B
:101AB0004A882A43A54DA84206D0A54DA84203D086
:101AC00022F44075CA882A4302808A8882850A885F
:101AD000028598420AD0A04208D0A54A904205D07B
:101AE000A44A904202D0A44A904201D1097A0186C8
:101AF0000121818230BD30B5028C22F001020284C6
:101B0000028C8388048B22F0020224F073050C8877
:101B10002C430D8915434A882A43884DA8420BD08F
:101B20008C4DA84208D0924DA84205D0914DA842B4
:101B300002D0914DA8420DD122F008054A8923F424
:101B400040732A4322F004058A882A438D891D4365
:101B5000CB892B4383800483C9888186028430BD6E
:101B600070B5028C22F010020284028C8488038BF0
:101B70000D8823F4E6464FF6FF7303EA0525354347
:101B80000E8922F0200203EA061616434A8803EA69
:101B900002123243694EB04202D06E4EB04215D1AD
:101BA00022F080064A8924F4406403EA0212324398
:101BB00022F040068A8803EA021232438E8903EA41
:101BC00086062643CC8903EA840434438480058353
:101BD000C9880187028470BD70B5028C22F48072BE
:101BE0000284028C8488838B0D8823F073031D4349
:101BF00022F400730E894FF6FF7202EA06261E4396
:101C00004B8802EA032333434C4EB04202D0514E7C
:101C1000B04215D123F400664B8924F4405402EA03
:101C20000323334323F480668B8802EA0323334380
:101C30008E8902EA06162643CC8902EA041434434C
:101C400084808583C9888187038470BD70B5028CC8
:101C500022F480520284048C8288838B0D8823F4C2
:101C6000E6464FF6FF7303EA0525354324F4005694
:101C70000C8903EA043434434E8803EA06362643CB
:101C80002E4CA04202D0334CA04205D122F4804415
:101C90008A8903EA8212224382808583C988A0F858
:101CA0004010068470BD828B22F440628283828B56
:101CB0004FF6FF7303EA01210A4382837047828B48
:101CC00022F00C028283828B0A4382837047028B4C
:101CD00022F440620283028B4FF6FF7303EA012174
:101CE0000A4302837047F0B5048C24F01004048486
:101CF000078B048C4FF6FF7527F4734705EA03330F
:101D00003B4305EA02221A430C4B05EA01169842AE
:101D10000ED0104B98420BD0B0F1804F08D0084B3A
:101D2000984205D0074B984202D0074B984225D1E4
:101D300024F02001314341F0100124E0002C014047
:101D40000004004000080040000C0040001000406B
:101D50000014004000340140004C0140005001409C
:101D60000054014000180040001C004000200040CA
:101D700000400140004401400048014024F0A0031D
:101D80000B4343F0100102830184F0BD028B22F06B
:101D90000C020283028B0A430283704770B5048CE5
:101DA00024F001040484058B048C4FF6FF7606EAC8
:101DB0000313134325F0F305F94A2B4390420ED049
:101DC000F84A90420BD0B0F1804F08D0F64A9042CA
:101DD00005D0F64A904202D0F54A904202D124F052
:101DE000020201E024F00A020A4342F001010383E7
:101DF000018470BD2DE9F05F0D4604460888E84F68
:101E0000DFF8A0C3DFF8A0834988AA882B894FF0A8
:101E1000804960B3042832D04FF6FF7E082836D0C0
:101E2000208C9B4620F480502084A38B268C704607
:101E300000EA022223F473431A4300EA0B301043F2
:101E40000EEA013EBC420BD0644509D04C4507D098
:101E5000444505D0D54A944202D0D54B9C4245D149
:101E600026F4005141EA0E0141F4805143E020463E
:101E7000FFF794FFE9882046BDE8F05F86E720463B
:101E8000FFF731FFE9882046BDE8F05F1FE7208CAF
:101E900020F480702084B4F81CA0208C0EEA031378
:101EA00013432AF0F30A0EEA012B43EA0A03BC4269
:101EB0000BD0644509D04C4507D0444505D0BB4AFA
:101EC000944202D0BA4A944204D120F4007040EA0D
:101ED0000B0002E020F42060084340F48070A383EC
:101EE0002084E9882046BDE8F05FE8E626F4024257
:101EF0000A4342F48051A08320462184E988BDE84A
:101F0000F05FD0E62DE9F0410C46002649880746EF
:101F1000012501B90226A288012A00D102252088C4
:101F200023890028384610D0FFF7DDFEE1883846C7
:101F3000FFF7CDFE23892A4631463846FFF72EFFAC
:101F4000E1883846BDE8F04120E7FFF727FFE18848
:101F50003846FFF71BFF23892A4631463846FFF7EC
:101F6000C2FEE1883846BDE8F041B0E610B50A8807
:101F70004B88CC881A438B8823431A430B891A4316
:101F80004B8989891A430A43A0F8442010BD4FF6B3
:101F9000FF71818000210180C18041800172704702
:101FA0000021018041808180C18001814181818146
:101FB000C181704700210180418001228280C1805F
:101FC000018170470021018041808180C1800181B1
:101FD0004181818170470029018802D041F00101CF
:101FE00001E021F0010101807047002930F8441F11
:101FF00002D041F4004101E0C1F30E0101807047BD
:10200000002A828901D00A4300E08A438281704716
:10201000818270471143A0F848107047002A8289D6
:1020200001D00A4300E08A4382817047018921F090
:10203000070101817047028922F070020A43028180
:10204000704700B50346FFF7F6FF188940F0070018
:10205000188100BD70B516460D46602904464FF044
:10206000010231460AD0FFF799FE29462046FFF7C4
:10207000E2FF208940F00700208170BDFFF733FEAA
:10208000F3E730B504894FF6FF7505EA03231343E0
:10209000E4B20B432343038130BD10B50446FFF780
:1020A000F0FF208940F07700208110BD10B5044674
:1020B000FFF7E7FF208940F48040208110BD0185B3
:1020C00082827047028822F070020A4302807047C1
:1020D00070B50589048B068C25F007050D434FF676
:1020E000FC410C4040F201110C434FF6FF7101EA34
:1020F000031126F022061143314305810483018434
:1021000070BD028B22F070020A4302837047028B7B
:102110004FF6FF7322F4E04203EA012111430183E9
:102120007047828B22F070020A4382837047828B51
:102130004FF6FF7322F4E04203EA01211143818349
:1021400070470029018802D041F0800101E021F0B0
:102150008001018070470029818802D041F004018C
:1021600001E021F00401818070470029818802D0BC
:1021700041F0080101E021F0080181807047002949
:10218000818802D041F0010101E021F0010181804C
:102190007047028B22F008020A4302837047000056
:1021A000002C0140003401400004004000080040C1
:1021B000000C0040028B4FF6FF7322F4006203EA2A
:1021C000012111430183E9E7828B22F008020A43CF
:1021D0008283E3E7828B4FF6FF7322F4006203EA07
:1021E000012111438183D9E7028B22F004020A43C3
:1021F0000283D3E7028B4FF6FF7322F4806203EA77
:10220000012111430183C9E7828B22F004020A43B2
:102210008283C3E7828B4FF6FF7322F4806203EA66
:10222000012111438183B9E7028B22F080020A4326
:102230000283B3E7028B4FF6FF73C2F30E0203EA89
:10224000012111430183A9E7828B22F080020A4316
:102250008283A3E7828B4FF6FF73C2F30E0203EA79
:1022600001211143818399E7028C22F002020A4383
:10227000028493E7028C22F008020A4302848DE76D
:10228000028C4FF6FF7322F0200203EA0111114382
:10229000018483E7028C4FF6FF7322F0800203EA89
:1022A00001111143018479E7028C4FF6FF7322F488
:1022B000007203EA0121114301846FE7028C4FF69B
:1022C000FF7322F4006203EA01211143018465E7F0
:1022D000028C4FF6FF7322F4005203EA01311143DE
:1022E00001845BE710B50123048C8B409C4304847C
:1022F000038C8A401343038410BD10B50423048C5F
:102300008B409C430484038C8A401343038410BD98
:1023100030B50124058C00F118038C40A5430584D9
:1023200089B108290FD0091FC1F34E001844016874
:1023300021F4E041016001684FF6FF7303EA0222D5
:102340001143016030BD03EB5100016821F07001C1
:1023500001600168F4E70029018802D041F0020120
:1023600001E021F00201018018E70029018802D074
:1023700041F0040101E021F0040101800EE7002991
:10238000818802D041F0800101E021F0800181804C
:1023900004E7028822F00802028002880A430280D1
:1023A000FCE6828822F07002828082880A43828062
:1023B000F4E6028922F00702028102890A430281BF
:1023C000ECE6028922F08002028102890A4302813E
:1023D000E4E68184E2E68185E0E68186DEE6018747
:1023E000DCE68187DAE6A0F84010D7E6028822F41E
:1023F0004072028002880A430280CFE6808ECDE6DA
:10240000008FCBE6808FC9E6B0F84000C6E6808C2E
:10241000C4E6008DC2E602460020128A0A4200D0BD
:102420000120BBE6C9430182B8E602460020138AB8
:1024300092890B4202EA010202D0002A00D0012058
:10244000ACE6C9430182A9E6704700000FB41CB591
:10245000074B06AA7B4469460090059800F031F9C5
:102460000020694600F040F91CBC5DF814FB000038
:10247000910200002DE9F0410E4604460020206242
:102480002046E168884730B3252805D0D4E90121EA
:102490009047206A401CF2E7E16820460027884701
:1024A000050018D0A5F14100192802D820354FF4B5
:1024B00000673246294620462760FDF773FE40B18B
:1024C000012804D0F61D26F007060836D8E7361D89
:1024D000D6E72846DAE7206ABDE8F08170B50C46F9
:1024E0000546012A05D02878800600D5EA69002330
:1024F00002E0012305E05B1C934202D2E05C00286D
:10250000F9D1A869E618C01AA861286A1844286297
:102510002846AFF3008004E0D5E9012114F8010B4F
:102520009047B442F8D32846AFF3008070BD000056
:102530002DE9F0410646002410687529314616A59C
:1025400010D0AFF30080002802DA404213A507E064
:1025500031688A0701D512A502E0490704D511A503
:10256000012401E0AFF3008000210A2206F12407D4
:1025700009E0B0FBF2FCB0FBF2F302FB1C003030D0
:1025800078541846491C0028F3D123462A46304681
:10259000BDE8F04100F036B8000000002D0000005A
:1025A0002B0000002000000010B5431C02E010F8D2
:1025B000011B71B18107FAD14FF0013202C88C1AA8
:1025C0008C4314EAC211F9D0C01A0A0603D0C01E07
:1025D00010BDC01A10BD0A0401D0801E10BD090232
:1025E000FCD0401E10BD704770477047704710B553
:1025F00000F096F8006810BD10B5044600F090F8A1
:10260000046010BD2DE9F0470D46994692460446F8
:1026100000F124080168880604D5E06921F0100162
:10262000216000E00120A84201DD471B00E00027F7
:10263000A1697A1902EB0900081AA0612078C00686
:1026400002D42046AFF30080002608E0D4E901213F
:102650001AF806009047206A401C761C20624E45FE
:10266000F4DB2078C0060AD52046AFF3008006E0F0
:10267000D4E9012130209047206A401C2062381E96
:10268000A7F10107F4DC07E0D4E9012118F80500FF
:102690009047206A401C2062281EA5F10105F3DC4A
:1026A0002046AFF300802078000602D50220BDE866
:1026B000F0870120FBE7000001694A1C02610878ED
:1026C000704700B58FB0CDE9013100210591054972
:1026D0007944CDE9031011466846FFF7CBFE0FB0F1
:1026E00000BD0000E5FFFFFF0A6802F8010B0A6069
:1026F000704710B5436913B1AFF3008001E0FFF7F5
:10270000EDFE012010BD127800F124010A700022B4
:102710004A700122EDE711684FF0FF32E9E700004F
:10272000004870478000002000487047800000206B
:102730007546FFF7F9FFAE4605006946534620F09F
:102740000700854618B020B5FEF776FCBDE82040AE
:102750004FF000064FF000074FF000084FF0000B5D
:1027600021F00701AC46ACE8C009ACE8C009ACE810
:10277000C009ACE8C0098D46704710B50446AFF3F8
:1027800000802046BDE81040FDF721BD490050EA19
:10279000C12018BF04204A0D18BF40F0010040F2CC
:1027A000FF72B2EB515F08BF40F00200012808BF82
:1027B000052070472DE9F0414F1E00EBC70104468C
:1027C000D1E9000115461E4637F006020DD02A4613
:1027D000334601F03FF87F1E04EBC703D3E9002323
:1027E00000F0A2FD37F00602F1D1022F25D0042F10
:1027F00013D0062F18BFBDE8F0812A46334601F0FA
:1028000029F8D4E90A2300F08FFD2A46334601F067
:1028100021F8D4E9082300F087FD2A46334601F069
:1028200019F8D4E9062300F07FFD2A46334601F06B
:1028300011F8D4E9042300F077FD2A46334601F06D
:1028400009F8D4E9022300F06FFD2A46334601F06F
:1028500001F8D4E90023BDE8F04100F065BD0000B7
:10286000002213461046014900F01ABE0000F03F56
:1028700000F05ABD002213461046114600F010BE6B
:1028800040F2013200204FF0E04101F0B4BD000001
:10289000024A0020110701F0AEBD000001FDFFFF5C
:1028A0002DE9F04D1D460C4698B0174621F0004129
:1028B00023F00043002814BF4FF0010C4FF0000C30
:1028C0000CEB440CFE4A0CEB02064FEA620C664528
:1028D0002BD33E0018BF012606EB45061644F94AE5
:1028E000964222D3F84A53EA070C02D0944205D10B
:1028F00048B918B000201146BDE8F08D002808BF87
:102900004FF0000C01D04FF0010C0CEB440212F51B
:10291000001F0AD8002F14BF4FF0010C4FF0000C1D
:102920000CEB450212F5001F07D918B03A462B46AA
:102930002146BDE8F04DFFF79BBF0022DFF88CA3D6
:10294000002CB8BF534526DADFF884C36345A8BF1F
:10295000022220DADFF870C39C451CDCDFF874C368
:102960000CEB235CBCF1140F08DDCCF1340627FA24
:1029700006FC0CFA06F6BE420DD108E05FB9CCF1B8
:10298000140623FA06FC0CFA06F69E4203D10CF05C
:102990000102C2F1020251EA000C19D1002D17DA2E
:1029A000002C18BF022A01D0012A07D00220FFF70D
:1029B00023FE18B0BDE8F04DFFF752BF0220FFF72D
:1029C0001BFEFFF74DFF18B081F00041BDE8F08D10
:1029D000B7F1000C6CD1534525D104F1804212F5BA
:1029E000801201BF00280020B74918B008BFBDE819
:1029F000F08DB548884207DC002DA1BF604629460E
:102A000018B0BDE8F08D07E0281E05DA80F000411F
:102A100018B06046BDE8F08DAF497944D1E90001B6
:102A200018B0BDE8F08DDFF8A0C2634525D1002DB8
:102A30001FDA19B1514512D1D8B909E0002840F088
:102A4000EC82A24A214618B062F31E01BDE8F08D67
:102A50000020214618B060F31E01BDE8F08D08DAB1
:102A600018B02346BDE8F04D02460020614600F054
:102A700017BD18B02146BDE8F08D514518DAB5F103
:102A8000804F0DD0A5F1005CBCF1FF5C10D1B4F11A
:102A9000000C0DDB18B06146BDE8F04D00F0ECBB5A
:102AA000234618B00246BDE8F04D194600F0D2BEEC
:102AB000060024F0004C3BD1D9B1514533D1002C54
:102AC00006DD002DA1BF0020514618B0BDE8F08DF5
:102AD000002C01DD002D1BDB002C13DA002D11DB97
:102AE000012A4FF0000014BF78497C4918B0BDE8B6
:102AF000F08D022A18BF002C0AD0012A08D1002C20
:102B000006DA0AE0002CB8BF002D11DA012A04D041
:102B1000002018B00146BDE8F08D18B000204FF03D
:102B20000041BDE8F08DA1F14050B0F17F601AD0B6
:102B3000012000EBE47050EA020421D0624C521EE6
:102B40004FF0000B104304BF4FF0000B644C65487E
:102B500083427CDD644A654893421FDD884217DB6F
:102B6000002D25DB37E0002C00DA4AB1022A0CBF29
:102B700001204FF0FF3018B0BDE8F04D00F017BE57
:102B80000120FFF739FD18B0BDE8F04DFFF772BE28
:102B90004D4A8A4202DC002D0ADC1CE0814202DA46
:102BA000002D18DA04E0484B994220DD002D12DD9B
:102BB0000220FFF721FDFFF763FE05460E460022C7
:102BC00053465846214600F045FE18B066F31E01F4
:102BD0002846BDE8F08D0220FFF70EFDFFF758FEF6
:102BE0000A46214618B062F31E01BDE8F08D0022AE
:102BF0003046614601F054F880460E466FF00102FF
:102C000001F0F9FB4FF05532394B00F057FF4246C7
:102C1000334600F01FFE0022364B00F04FFF824685
:102C20004246334604911046194600F013FE5246C0
:102C3000049B00F00FFE8A4600904FF0C0422E4BDE
:102C40004046314600F006FE2C4A2B4B00E027E0C0
:102C5000CDE906015146009800F0FCFD8246019145
:102C6000274A284B4046314600F0F4FD5246019B6E
:102C700001F016F882460B4602460591DDE9060191
:102C800000F052FBDDE9062300268846304601F0BD
:102C900007F85246059B00F011FF024600F07EB98E
:102CA0000020B1F5801F07DA35223046614601F079
:102CB000A2FB06466FF0340000EB215024E0000038
:102CC000FFFF1F00FFFF0F000000F03F0000F07F3C
:102CD0000000404301FCFFFF3A1B00000000F0FF32
:102CE0000000F0BF0000E0410000F043FFFFEF3FB5
:102CF0005555D53F0000E03F4715F73FFE822B6555
:102D000044DF5DF80BAE543EA0F2FF300190C1F3FA
:102D1000130040F07F6141F040510291FE4988422A
:102D2000D8BF002004DDFD498142C8BF012001DD7C
:102D30000D9008E000200D900198401C0190029831
:102D4000A0F5801002900299F54878440B910D99F6
:102D500000EBC100D0E900230F9330460A920B9993
:102D600000F09EFFCDE90601DDE90A2130460F9B08
:102D700000F0DAFA02460B460020EA4900F090FB28
:102D8000059102460B460090DDE9060100F062FD68
:102D90001490E5488A464FF000087844029900688C
:102DA00012904FF0005040EA61010D980F9B01EB2B
:102DB000804000F5002109910A9A129800F070FFF6
:102DC00032460B9B00F07AFE4246534600F042FD2D
:102DD0000646029140465146099B129A00F03AFD80
:102DE000DDE9062300F06AFE3246029B00F058FF40
:102DF000059B009A00F02EFD0091149A0490534612
:102E00001046194600F026FD06460246C7480B4606
:102E1000029106217844FFF7CDFCCDE90510029B15
:102E200032461046194600F015FDDDE9053200F086
:102E300011FD05910646534640461946149A00F086
:102E400073FA009B049A00F005FD3246059B00F0E2
:102E50006BFACDE90510424653461046194600F07C
:102E6000F9FC0022B24B02910A9000F05DFADDE914
:102E7000053200F059FA0E464246AD4B404600F08E
:102E80000FFF029B0A9A00F00BFFDDE9053200F00C
:102E900015FE424602910A9033461046514600F014
:102EA000D9FCCDE906015346149A02990A9800F01C
:102EB000D1FC8A460290334642460099049800F0BD
:102EC000C9FC5346029A00F02FFA82460B4602468E
:102ED0000591DDE9060100F027FADDE9062300206F
:102EE0008846064600F0DCFE5246059B00F0E6FDF3
:102EF000824609914FF060428E4B3046414600F0C9
:102F0000A9FC049006918C4A8A4B5046099900F01E
:102F1000A1FC82460291894A894B3046414600F025
:102F200099FC5246029B00F0FFF9864B7B440D9AB8
:102F300003EBC203D3E9002300F0F6F90E900791EA
:102F4000019800F034FC0591DDE9061382460E9AE3
:102F5000049800F0E9F97C4A7A440D9B02EBC30324
:102F6000D3E900230093029200F0DEF95246059B5C
:102F700000F0DAF90026884652463046059B00F0FC
:102F80008FFE009B029A00F08BFE069B049A00F0D5
:102F900087FE079B0E9A00F091FD024600200B462B
:102FA00002903846294600F055FC824601912B4696
:102FB00038461946029A00F073FE3246434600F046
:102FC00049FC5246019B00F0AFF907468A4632465B
:102FD00043462946029800F03DFC05460E463A4617
:102FE000534600F0A1F9594A8846914221DBA8EBEB
:102FF000020353EA000210D12A46334600F050FE85
:10300000CDE90401524A534B3846514600F08CF941
:10301000DDE9042300F01CFD21D20220FFF7ECFAC9
:10302000FFF72EFC0A46214618B062F31E01BDE8E8
:10303000F08D494B28F000429A4210D3474A08EBE2
:10304000020353EA00027FF4C6AD2A46334600F07D
:1030500027FE3A46534600F0FBFC7FF6BCAD00224B
:10306000019228F000403E493E4A01EB2051824245
:1030700023DA481C4FF4801121FA00F040443A4A08
:10308000C0F30A517A44394BA1F2FF31CB4020EA18
:103090000303C0F3130040F48010C1F11401C840D1
:1030A00012680190B8F1000FBCBF40420190284661
:1030B000314600F0F5FD05460E462A4633463846B1
:1030C000514600F031F94FF000084246284B404687
:1030D000059100F0BFFBCDE90601264A264B40468C
:1030E000059900F0B7FB009102902A46334640460E
:1030F000059900F0D5FD3A46534600F0DFFC1F4A23
:103100001F4B00F0A7FB009B029A00F00DF9074649
:10311000884602460B4635E08E9803007AB60B00CF
:10312000821700000000F03FBA170000E816000008
:103130000000084009C7EE3FFD033ADCF5015B14CF
:10314000E02F3EBEC0150000841500000000904036
:10315000FE822B654715973C00CC904000346F3FB2
:1031600001FCFFFF0000E03FD0140000FFFF0F0054
:10317000432EE63F396CA80C615C20BEEF39FAFEA5
:10318000422EE63FDDE9060100F0CEF8DDE9062338
:1031900005460E4600F084FD3A46434600F08EFC9C
:1031A0000F462A46334600901046194600F052FB5F
:1031B000824602462E4888460B4605217844FFF792
:1031C000F9FA5246434600F045FB2A46334600F0E2
:1031D00075FC80468A463B4628463146009A00F0F8
:1031E00039FB3B46009A00F09FF8069100900022C0
:1031F0004FF080434046514600F052FD0F460C9080
:10320000424653462846314600F024FB3B460C9A82
:1032100000F046F9069B009A00F042FD2A4633462C
:1032200000F03EFD0022134B00F048FC05460198DB
:103230000E4601EB00510815002810DC28463146E7
:10324000019A01F0D8F8FFF7A1FA042808BFFFF7A8
:103250001FFB28463146019A01F0CDF805460B4682
:1032600018B02A4658462146BDE8F04D00F0F2BAA3
:10327000701300000000F03F2DE9F04106460F46B4
:1032800000F028FC041E0D4618BF0120284320F042
:103290000040C0F17F6000F1E040C00F0ED0301C54
:1032A00018BF0120384320F00040C0F17F6000F1DA
:1032B000E040C00F04BF0120FFF79EF920462946D9
:1032C000BDE8F08121F00042A2F16052B2F5801F0A
:1032D00001F0004328BFD2F17F6C0BD95FEA001CDC
:1032E00043EAC20242EB507018BF704728BF20F07B
:1032F00001007047B2F5801FBCBF184670474FEA07
:10330000410C1CF5001F02D2084600F096BF70B5B4
:1033100000F04AFB00000089FFF7F6BF4FF00040C5
:10332000A0F580007047000010B591EA030F48BF78
:1033300083F0004300F1BC84841A71EB030C05D2C6
:10334000121943EB0C03001B61EB0C01DFF824E1C5
:103350004FEA1154A4EB135C1EEA430F18BF9EEA18
:10336000445F73D023EA0E03DCF1200E21EA0451FE
:1033700043F4801332D322FA0CFE10EB0E0023FA32
:103380000CFE41EB0E01CCF1200E03FA0EFE10EB09
:103390000E0051F10001B1F5801FCCF1200E32D2A8
:1033A00001EB045112FA0EF2BDE8104058BF70470D
:1033B000401C38BF5FEA420218BF7047002814BFA4
:1033C00020F0010041F100014FEA410313F5001F15
:1033D00038BF7047A1F1C04100F034BB012A43EB74
:1033E0000302ACF1200CDCF11F0E32BF4FF0000ED7
:1033F00023FA0CF310EB030041EB0451B4EB115F23
:10340000D0D0A1EB045101F5801149085FEA3000EA
:1034100001EB04510ED350F1000038BF12FA0EFE3A
:1034200008D1BDE81040C9E7401C38BF5FEA42023E
:10343000CAD1C3E7BDE810404FEA410313F5001FAE
:1034400038BF7047A1F1C04100F0FCBA9EEA445F6A
:1034500008D011EA5E0FBDE8104004BF01F0004142
:1034600000207047BDE8104070B500F09DFA00BF25
:1034700064FBBE3E0000E0FF02494FF0000000F098
:1034800088BF00BF0000F87F491058BFC1F140411C
:103490005B1058BFC3F140438B42EFF3008070478D
:1034A0002DE9C04130B4DFF8A0C23CEA111418BFC6
:1034B0003CEA131400F0EC8081EA03051CEA1114C5
:1034C00044EAD57418BF1CEA131500F0C780A4EBBA
:1034D00005044FF0004545EAC12145EAC32341EA0E
:1034E000505143EA525304F17F74994204F5003479
:1034F0004FEAC0204FEAC22208BF904200F09C80F1
:103500004FEA13650FF24016765D4FEA134506FB4E
:1035100005F7C7F1807706FB07F74FEAD737A7FB18
:1035200003687642C8F58038A7FB06CE38BFA8F1FD
:10353000010807FB08E64FF0000EA6FB028CE6FB35
:1035400003CEDCF1000CCEF1004E38BFAEF1010E1F
:10355000A6FB0C584FF000074FF00005E6FB0E8766
:10356000A1FB08C6A0FB07CE16EB0E0645F1000531
:10357000E1FB076515F1E04E7EBFA4F580345FEAFC
:1035800046066D4116F1800745F100054FEA172701
:103590004FEA066647EA0567A6F1DE46B6F1805FA8
:1035A0004FEA15251FD9384624F0010C05EBC471EC
:1035B000BCF1FE6F01EB0C1102D8F0BCBDE800813C
:1035C00024425CBF01F5801E9EEAC47F02D4F0BC99
:1035D000BDE80081244238D4F0BCA1F1C041BDE86F
:1035E000004100F02FBA4FEAD22242EA43524FEA9A
:1035F000D323A7FB02864FEAD02040EA415007FBC5
:1036000003661EEA0E0F4FEAD12105FB026658BF82
:10361000A6EB0056B6EB00564FEA520E4EEAC37EBA
:1036200018EB0E0E56EB530EBDD518EB02085E419B
:103630007F1C55F10005B6E74FF480154FF00007E9
:103640004FF000064FF00008ADE7F0BC4FF000006F
:1036500001F1C04101F00041BDE8008111EA0C1FF9
:103660000CEA131500D00CE013EA0C1F00F02580C3
:103670004FF00000F0BC81EA030101F00041BDE819
:103680000081F0BCBDE8004181EA030100F0DAB935
:10369000F0BCBDE8004170B500F086F9097EFC3E43
:1036A00000F007B881EA03014FF0000001F000418B
:1036B000704781EA030100F0C5B9F0BCBDE80041E4
:1036C0004FF0000021497047FFFDFBF9F7F5F4F2D8
:1036D000F0EEEDEBE9E8E6E4E3E1E0DEDDDBDAD8AD
:1036E000D7D5D4D3D1D0CFCDCCCBCAC8C7C6C5C40B
:1036F000C2C1C0BFBEBDBCBBBAB9B8B7B6B5B4B322
:10370000B2B1B0AFAEADACABAAA9A8A8A7A6A5A40C
:10371000A3A3A2A1A09F9F9E9D9C9C9B9A999998D0
:103720009797969595949393929191908F8F8E8E73
:103730008D8C8C8B8B8A8989888887878685858400
:1037400084838382828181800000FF070000F87FEC
:103750004FEA41034FEA5353A3F58063D3F11E03AD
:10376000C8BFD3F1210C0CDD4FF0004242EAC12268
:1037700042EA505232FA03FC8CEAE17CACEBE17095
:103780007047102BC4BF0020704703F5787CBCF154
:10379000FF3F04D06FF0004282EA2100704770B50D
:1037A00000F002F94992248000207047F2E710F0FF
:1037B000004248BF4042B0FA80F310FA03F10AD049
:1037C000C3F11D0303F580634FEA415002EB03523E
:1037D00002EBD12170474FF00000704751EA030C13
:1037E00017D41CF5801F58BFBCF5801F00F1068060
:1037F000994218BF704708BF9042704707D711F52C
:10380000801F58BF13F5801F19D499427047894211
:1038100070471CF5801F08D5BCF5801FF7D58B427B
:1038200018BF704708BF824270474FF4001C1CEB62
:10383000410F38BF1CEB430F01D28B42704770B56C
:1038400000F0B2F8922449004FF000514FF080533D
:10385000FFF71ABEDFF848C170B51CEA111E1EBF83
:103860001CEA13159EEA0C0F95EA0C0F00F06F800E
:1038700081EA030423EA4C134EEAD47E21EA4C1178
:1038800041F4801143F48013AE44A1FB024CA0FB31
:103890000365AEF17F7E361955EB0C05A1FB034C99
:1038A0004CF10003A0FB021C16EB0C06654153F122
:1038B0000003094218BF46F0010613F4007F0BD144
:1038C0004FEA03314FEA0530340341EA155140EA2B
:1038D00016506FF003020AE04FEAC3214FEAC520F9
:1038E000F40241EA555140EA56506FF0020202EBF1
:1038F0002E4201EB025585EACE710AD05FEA440CF4
:1039000018BF24F0004450F1000041F1000120EA0A
:10391000D47040F2FE7C624500D270BDA84214BF54
:103920004FF080444FF04044002E08BF0024BEF109
:10393000806FA8BFA1F1C041BDE8704080F28280D5
:103940004FF0000001F1C04101F0004170479EEAD4
:103950000C0F0CEA131518BF95EA0C0F06D04FF0A8
:10396000000081EA030E0EF0004170BD00F01CF86B
:103970008900013E00F007B800F009B84FEA430C97
:103980005FEA5C5C08D081EA030100F05BB84FEAB3
:10399000410C5FEA5C5CF6D14FF0000001497047D2
:1039A0000000FF070000F87F0EF1020E2EF0030E5C
:1039B0005EF8046B364205D4012A43EB030515F586
:1039C000001F12D8012841EB010C1CF5001F0CD878
:1039D0000ED14FEAD17C15F5001F0CEB4C0C0CF10D
:1039E000020C08BF4CEBD37C04E04FF0080C01E064
:1039F0004FEAD37C0CEB4C0526FA05F606F00706D9
:103A0000B6F1040C06D20EEB860CBDE870404CF00B
:103A1000010C6047DFE80CF0090B02024FF0004197
:103A20004FF00000A1F5002170BD19461046012895
:103A300051EB010418BFD4F5001484BF002001F03D
:103A4000004170BD0808A0F500114FEA3101704730
:103A500053EA010C17D41CF5801F58BFBCF5801F1A
:103A600000F106808B4218BF704708BF8242704742
:103A700007D713F5801F58BF11F5801F19D48B424B
:103A800070479B4270471CF5801F08D5BCF5801F0E
:103A9000F7D5994218BF704708BF904270474FF45E
:103AA000001C1CEB430F38BF1CEB410F01D29942A5
:103AB00070470FB40CBC03BCFFF7C1BE91EA030F03
:103AC00010B581F000413FF537AC83F0004300F0C2
:103AD000EFB800002DE9F04101F5801CBCF5001F96
:103AE000C0F2C3804FEA115C21EA0C510CF1FD0CCD
:103AF00041F480115FEA5C0C0CF5C07C01D34000FE
:103B000049413DA4890241EA905187028E0E0A0C78
:103B1000A45D04FB04F602FB06F6C6F14046A4FBD6
:103B20000662F60D46EA422606FB06F4A4FB0123D4
:103B30005242C3F1404338BF5B1EA6FB0242002441
:103B4000E6FB0324D20B42EA4446A6FB0623A1FB74
:103B500002E2A3FB07E4A4184FF0000252F10002B6
:103B6000E3FB01426442C2F1404E38BFAEF1010EA8
:103B7000A6FB04234FF00002E6FB0E32A2FB034635
:103B80004FF00004B61954F10004E2FB0264A1FBFB
:103B900006E6A4FB07E816EB08064FF0000858F10C
:103BA0000008E4FB01687642C8F1405838BFA8F12C
:103BB0000108A2FB06E4A3FB08E52D194FF0000461
:103BC00054F10004E2FB0854A1FB05E6A7FB04E85E
:103BD00018EB06084FF0000656F10006E1FB0486DC
:103BE00018F1200556F10006A809A8F11B08B10933
:103BF00008F03F08B8F10A0F40EA86601CD901EBD3
:103C00000C51BDE8F08100BFFCF5EEE8E2DDD8D351
:103C1000CFCBC7C3C0BDB9B6B4B1AEACA9A7A5A33D
:103C2000A19F9D9B9A9896959392908F8D8C8B894E
:103C30008887868584838281A0FB006800FB01F26F
:103C400008EB4208B8EB872807D5341858EB010475
:103C5000D5D5401C51F10001D1E7341A78EB0104AD
:103C6000CDD4401E71F10001C9E75FEA4C0C5FEA58
:103C70009C5C0DD105D34FF0000001F00041BDE880
:103C8000F081BDE8F04170B5FFF78EFE6DDBFFBE41
:103C9000BDE8F0414FF00000004970470000F87F98
:103CA00010B591EA030F48BF83F000433FF544ABE2
:103CB000841A71EB030C07D212198CF0004C43EB01
:103CC0000C03001B61EB0C01DFF8A4E14FEA115477
:103CD000A4EB135C1EEA430F18BF9EEA445F00F09A
:103CE000B08023EA6E03524221EA0451C3EB6E0313
:103CF00038BF5B1EDCF1200E25D322FA0CFE10EB40
:103D00000E0043FA0CFE41EB0E01CCF1200E03FA3B
:103D10000EFE10EB0E0051F10001CCF1200E29D463
:103D200012FA0EF201EB0451BDE8104058BF704783
:103D3000401C1CBFB2F1004F704700280CBF491C4B
:103D400020F00100704712EB020E43EB030218BF94
:103D50004FF0010E4EEA4202ACF1200CDCF11E0ED7
:103D600054D943FA0CFE10EB0E0051F1FF31CCF1A7
:103D70001E0ED5D50EF1010E12FA0EFE404141EB9A
:103D8000010101EB445C5FEA5C5C10D910EBDE7072
:103D900001EB045138BFBEF1004FBDE8104018BF21
:103DA000704700280CBF491C20F00100704730D23A
:103DB0004FEAD42C11F5001124F400641BD0B1FAA1
:103DC00081F20B3AA41AA41ED2F12003914030FADA
:103DD00003F31943904001EBCC71002C01EB04512B
:103DE000BDE81040A8BF704701F1C0414FF000008E
:103DF00001F000417047B0FA80F310FA03F100D1EE
:103E000010BDE41A173C4805C90AE4E701EB045168
:103E100010BD491001EB0451BDE810404FEA3000DD
:103E200002E04FF0000170474A0008BF0042F8D09E
:103E3000B2F5001F28BF704701F000414FF00000AD
:103E400070479EEA445F07D011EA5E0FBDE810405C
:103E500004BF002100207047BDE8104070B5FFF797
:103E6000A3FD00BF40DFF63E83F0004110467047DF
:103E70000000E0FF43004FEAD30C4FEA3C0C434004
:103E80001FBF40070CF1605113F0FE4F70471CF04C
:103E9000006F03D100200CF0004170470CF000438C
:103EA00043EA507010B540EACC0000F080F900BF42
:103EB000000000924FEA0001FFF7C4BD4FF000413F
:103EC0004FF00000A1F500217047000090EA010FBB
:103ED00048BF81F0004100F1EE81421A3CBF801AD8
:103EE00089184FEAD0524FF07F4C1CEA410FA2EBE9
:103EF000D15318BF9CEA026F00F03B804FF0004C9A
:103F00004CEA00204CEA012121FA03FC10EB0C0CD6
:103F10001ED202F1FF325FEA1C2040EBC25038BFD4
:103F200070471CF07F0F4FEA400C18BFBCF17F4F69
:103F300038BF7047C3F12003994008BF20F001004B
:103F4000BCF17F4F38BF7047A0F1C04000F075B999
:103F50004FEA3C00000A40EBC25028BF1CF0FF0FA4
:103F60004FEA400CE6D018BFBCF17F4F38BF704716
:103F7000EAE79CEA026F05D010EA5C0F08BF00F088
:103F80000040704710B500F012F900BF64FBBE3E60
:103F9000014800F0FEB900BF0000C07F401058BFCC
:103FA000C0F14040491058BFC1F140418142EFF398
:103FB0000080704741000B0ED3F19E0208D950F4E7
:103FC00000034FEA032323FA02F048BF4042704740
:103FD00010B500F0ECF800BF499224800020704733
:103FE0006FF0004282EA20007047000010F00041AC
:103FF00048BF4042B0FA80F310FA03F2C3F19D03C8
:104000000BD051EAC35101EB1220530638BF704761
:1040100000F1010008BF20F001007047B0FA80F302
:1040200010FA03F2C3F19D030AD0D90501EB122067
:10403000530638BF704700F1010008BF20F00100AF
:104040007047000050EA010C00F113801CF5000FCE
:1040500058BFBCF5000F01D48842704707D710F550
:10406000000F58BF11F5000F15D4884270478942E0
:1040700070471CF5000F04D5BCF5000FF7D5814241
:1040800070474FF0807C1CEB400F38BF1CEB410F9A
:1040900001D28142704710B500F089F8922449009E
:1040A0004FF000504FF08051FFF778BF4FF47F0C76
:1040B0001CEAD0121EBF1CEAD11392EA0C0F93EA3D
:1040C0000C0F00F0478090EA010F48BF42F4807265
:1040D0004FF0004C4CEA00204CEA012102EB0302B5
:1040E000A0FB0113A2F50002002918BF43F0010351
:1040F0005B0028BF4FEA330342EB22425FEA132CF6
:104100004CEBC2502EBFBCEB436FB2F57C0F704737
:104110004FEA036CBCF1004F08BF20F00100B2F57C
:104120007C0F38BF70470BD582F0FF0212F5803F3D
:10413000C8BF704700F1C040D8BF00F000407047D2
:1041400000F5000C5FEA4C0C48BF7047B0F1C0406E
:1041500000F073B890EA010F0CEAD11348BF42F4A3
:104160008072624538BF634504D280EA010000F0E6
:104170000040704710B500F01AF800BF8900013EFA
:1041800000F007B800F009B85FEA410C5FEA1C6C68
:1041900008D080EA010000F050B85FEA400C5FEA06
:1041A0001C6CF6D14FF00040A0F5800070470EF176
:1041B000020E2EF0030E5EF8044B244204D44FEAA4
:1041C0004102B2F17F4F11D84FEA4003B3F17F4F64
:1041D0000CD80ED14FEAD07CB2F17F4F0CEB4C0CD7
:1041E0000CF1020C08BF4CEBD17C04E04FF0080C42
:1041F00001E04FEAD17C0CEB4C0324FA03F404F009
:104200000704B4F1040C06D20EEB840CBDE8104098
:104210004CF0010C6047DFE80CF0070802024FF099
:104220000040A0F5800010BD0846420018BFD2F142
:10423000807288BF00F0004010BDFF2141EAD050DD
:10424000C005704751EA000C00F113801CF5000F07
:1042500058BFBCF5000F01D48142704707D711F554
:10426000000F58BF10F5000F15D4814270478942E6
:1042700070471CF5000F04D5BCF5000FF7D5884238
:1042800070474FF0807C1CEB410F38BF1CEB400F98
:1042900001D28842704780EA010081EA000180EA89
:1042A0000100FFF7F8BE000090EA010F48BF81F05F
:1042B00000413FF512AE421A04D882F00042A0EB52
:1042C000020011444FEAD0524FF07F4C1CEA410FDC
:1042D000A2EBD15318BF9CEA026F4AD04FF0004CBA
:1042E0004CEA00204CEA012121FA03FCB0EB0C0C53
:1042F0000FD412F0FE0F36D05FEA4C001DD500122D
:1043000040EBC25038BF70471CF03F0F18BF7047DA
:104310000BE0A2F101025FEA1C2040EBC25038BF63
:1043200070471CF07F0F18BF7047C3F120039940FE
:1043300014BF401E20F00100704780084FEA12238E
:1043400008BF7047B0FA80FCA2EB0C02CCF1280C3D
:1043500060FA0CF093EA122F04BF00EBC2507047D2
:104360004FEAC3707047130A5FEADC1008BF70475A
:10437000F6E79CEA026F04D010EA5C0F08BF002049
:10438000704710B5FFF713FF40DFF63E81F00040A5
:1043900070470CF00F03092B08BF082000F07F8046
:1043A0000A2B0BD0082B18BF704708BF1CF0400F1A
:1043B0000AD04FF000004FF0000170471CF0400F92
:1043C00018BF4FF0004070471CF0100F08D020F0CD
:1043D000704300F07F4242EAD3014FEA43707047D6
:1043E00000F0604021F07F4242EA000201F07F408D
:1043F00040EA727070474FF0FF0C4CF4E06C1CEA1E
:1044000011531CBF9CEA030C9445C2BFDA4201EB76
:1044100002517047002B0DD0BCF1000F0FD0002AC5
:1044200001F00041A4BF41F0E04141F07F614FF055
:104430000000704701F000414FF00000704750EA63
:1044400001334FF09B0C18BF4CF0806C7FF414A824
:1044500070474FF0FF0212EAD0521CBF92F0FF03E8
:104460008B42C2BFD14200EBC1507047002A0AD034
:10447000002B0BD0002900F00040A4BF40F0FE400C
:1044800040F40000704700F00040704743024FF0D6
:104490000B0C18BF4CF0806C7FF47AAD70471CF4A5
:1044A000801F11D01CF4E02F03D06FEACC314900FB
:1044B00070474FF04050EFF3008222F0704242EA22
:1044C000000282F3008870474FF000007047000040
:1044D000000000000000F03F000000000000F83F76
:1044E00000000000000000000000004003B8E23FB0
:1044F000000000000000000006D0CF43EBFD4C3E62
:10450000033333333333E33FFFAB6FDBB66DDB3F56
:104510004D268F515555D53F01411DA96074D13F9E
:1045200065DBC9934A86CD3FEF4E454A287ECA3F98
:104530003E5555555555C53F93BDBE166CC166BF1A
:104540002CDE25AF6A56113FF16BD2C541BDBBBE13
:10455000D0A4BE726937663E000000000000000073
:1045600080450008000000204C0000006C0100089D
:10457000CC4500084C00002094060000880100088B
:1045800000A24A0400000000000000000102030431
:1045900006070809010000000000FFFFFF000000FF
:1045A000000000004A0100001E00000000000000A2
:1045B00000000000000002040608000000000102E4
:0C45C000030401020304060708090000C0
:0400000508000131BD
:00000001FF
